:020000040800F2
:10000000800D0020891F0008AD1F0008AF1F0008E9
:10001000B31F0008B71F0008BB1F00080000000046
:10002000000000000000000000000000C11F0008E8
:10003000BF1F000800000000C31F0008C51F000804
:10004000C71F0008C91F0008CB1F0008CD1F0008EC
:10005000CF1F0008D11F0008D31F0008D51F0008BC
:10006000D71F0008D91F0008DB1F0008DD1F00088C
:10007000DF1F0008E11F0008E31F0008E51F00085C
:10008000E71F00081F240008E91F0008EB1F0008F5
:10009000ED1F0008EF1F0008F11F0008F31F000804
:1000A000F51F0008F71F0008F91F0008FB1F0008D4
:1000B00075240008FD1F0008FF1F0008012000082C
:1000C0000320000805200008072000080920000878
:1000D0000B200008852600080D2000080F200008CE
:1000E0001120000813200008152000081720000820
:1000F000192000081B2000081D2000081F200008F0
:1001000021200008232000082520000827200008BF
:10011000292000082B2000082D2000082F2000088F
:10012000312000083320000835200008372000085F
:1001300000F002F800F043F80AA090E8000C8244B6
:100140008344AAF10107DA4501D100F038F8AFF293
:10015000090EBAE80F0013F0010F18BFFB1A43F0A5
:1001600001031847C4280000E4280000103A24BF07
:1001700078C878C1FAD8520724BF30C830C144BF0C
:1001800004680C607047000000230024002500264E
:10019000103A28BF78C1FBD8520728BF30C148BFEA
:1001A0000B6070471FB502F0BFFB04000020002168
:1001B00002F01AFC401C60601FBD10B510BD02F0BB
:1001C0008EFB1146FFF7EEFF02F0C6FA02F0BEFB0F
:1001D00003B4FFF7F2FF03BC02F0FEFB016821F05D
:1001E000010101600021016041608160C160884AB5
:1001F000811A90425BD012DC864AA0EB0201904249
:100200003AD007DC84490144D9B1142922D02829E5
:100210007AD128E0142938D0282975D13EE0B1F5EB
:100220006C7F5BD006DCB1F5627F49D0B1F5677FAA
:100230006AD14CE0B1F5717F57D0B1F5767F63D1CB
:100240005BE074494439496841F00F01714A443A0E
:1002500051605AE06F494439496841F0F0016D4AF4
:10026000443A516051E06B494439496841F4706146
:10027000684A443A516048E066494439496841F463
:100280007041644A443A51603FE0624944394968E8
:1002900041F470215F4A443A516036E05D49443987
:1002A000496841F470015B4A443A51602DE0594974
:1002B0004439496841F07061564A443A516024E03B
:1002C0005649096841F00F01544A11601DE0534935
:1002D000096841F0F001514A116016E04F49096880
:1002E00041F470614D4A11600FE04C49096841F4D6
:1002F00070414A4A116008E006E04849096841F443
:100300007021464A116000E000BF00BF704710B581
:100310000022026847F6F0739A430C6A8B68234305
:100320000C6923434C6923438C692343CC692343E1
:100330004C6A23438C6A23431A430260CB684360B0
:100340000B6883604B68C36010BD00210160416091
:100350008160C160016141618161C161016241628D
:100360008162704721B1026842F00102026003E03D
:10037000026822F00102026070471AB103680B4361
:10038000036002E003688B4303607047416070477D
:100390000146486880B2704701460020002201F003
:1003A00080531BB11D4B1B1F1A6802E0194B443BC5
:1003B0001A6802EA01030BB1012000E00020704737
:1003C00000F0805111B11549086002E0114944392B
:1003D0004860704701460020002201F080531BB1A5
:1003E0000E4B1B1F1A6802E00A4B443B1A6802EAD4
:1003F00001030BB1012000E00020704700F08051A4
:1004000011B10649086002E002494439486070476A
:100410008000024044000240F8FFFDBF0404024097
:100420001049096801F038010E4A11601146096847
:100430000143116070470B49096821F00801094A1E
:100440001160114609680143116070470549096848
:1004500021F01001034A116011460968014311603F
:10046000704700000020024010B50446C649601ADB
:100470008C422FD009DCC548204480B1B0F5806F94
:1004800016D0B0F5006F4AD11BE0B0F5806F2AD0CE
:10049000B0F5006F30D0B0F5406F40D135E00121AC
:1004A000042000F061FB0021042000F05DFB37E038
:1004B0000121082000F058FB0021082000F054FB27
:1004C0002EE00121102000F04FFB0021102000F051
:1004D0004BFB25E00121202000F046FB00212020DD
:1004E00000F042FB1CE00121402000F03DFB002118
:1004F000402000F039FB13E00121802000F034FBA4
:100500000021802000F030FB0AE00121080200F009
:100510002BFB00214FF4807000F026FB00E000BFB1
:1005200000BF10BD10B50121084600F01DFB0021E1
:10053000012000F019FB10BD2DE9F0410246002515
:100540000026002000230024002791F803C00CF0AF
:100550000F0591F803C00CF0100CBCF1000F03D094
:1005600091F802C04CEA050591F800C0BCF1000FFB
:1005700031D0146800202BE04FF0010C0CFA00F38E
:10058000B1F800C00CEA03069E4220D183004FF070
:100590000F0C0CFA03F7BC4305FA03FC4CEA040405
:1005A00091F803C0BCF1280F06D14FF0010C0CFAF2
:1005B00000FCC2F814C00AE091F803C0BCF1480F77
:1005C00005D14FF0010C0CFA00FCC2F810C0401C21
:1005D0000828D1D31460B1F800C0BCF1FF0F34DD9E
:1005E000546800202EE000F1080C4FF0010808FAD2
:1005F0000CF3B1F800C00CEA03069E4221D183003F
:100600004FF00F0C0CFA03F7BC4305FA03FC4CEA5D
:10061000040491F803C0BCF1280F05D100F1080CC7
:1006200008FA0CF8C2F8148091F803C0BCF1480F26
:1006300007D100F1080C4FF0010808FA0CF8C2F8D5
:100640001080401C0828CED35460BDE8F0814FF6DE
:10065000FF710180022181700421C1707047024640
:10066000002093680B400BB1012000E00020704790
:100670000146886880B2704702460020D3680B406C
:100680000BB1012000E0002070470146C86880B22D
:10069000704701617047416170470AB1016100E034
:1006A00041617047C16070474FF480320A438261F4
:1006B0008161826182698269704702460020344B01
:1006C00018684FF68073184040EA02100843304B18
:1006D000186070472F49C8617047F0B50A4600237B
:1006E0000024002100252A4E7168C0F3034583B21F
:1006F00000F44016B6F5401F08D121F07061244E79
:10070000766826F07066224F7E6012E000F4801654
:10071000B6F5801F06D1032606FA05F4A14341F081
:10072000706106E0460D360103FA06F6B14341F06A
:10073000706122B1460D360103FA06F63143144EBC
:100740007160F0BD30B500228B071C0F0F2303FA38
:1007500004F20F4B08338C1053F8243093430C4CA5
:1007600008348D1044F8253023468C1053F824307B
:100770008C07240F00FA04F42343054C08348D1031
:1007800044F8253030BD00000014014000F8FEBFE1
:100790000000014000002042042808D14FF0E02171
:1007A000096941F004014FF0E022116107E04FF0C8
:1007B000E021096921F004014FF0E0221161704746
:1007C0004FF0E02148617047012808D14FF0E02147
:1007D000096941F001014FF0E02211610EE0811C36
:1007E00041B94FF0E021096921F001014FF0E02209
:1007F000116103E000214FF0E0229161704740B1A8
:100800004FF0E021096941F002014FF0E02211614F
:1008100007E04FF0E021096921F002014FF0E022EA
:10082000116170474FF0E0208069704710B50146B4
:10083000002200230020CB10022B03D14FF0E02434
:10084000226902E04FF0E024E26901248C40144068
:100850000CB1012000E0002010BD0000DE4800685F
:1008600040F00100DC49086008464068DB49084068
:10087000D949486008460068D9490840D649086007
:100880000846006820F4802008600846406820F48C
:10089000FE004860002088607047CF49096821F455
:1008A0008031CD4A11601146096821F48021116020
:1008B000B0F5803F03D0B0F5802F0ED106E0C649D9
:1008C000096841F48031C44A116007E0C2490968EF
:1008D00041F4A021C04A116000E000BF00BF704792
:1008E00010B501460022002300204A11012A02D13E
:1008F000B94C236806E0022A02D1B74C236A01E012
:10090000B54C636A01F01F02012494401C400CB1F5
:10091000012000E0002010BD38B500200090002428
:10092000002500BF3120FFF7DBFF05460098401C83
:1009300000901DB90098B0F5A06FF3D13120FFF7FA
:10094000CFFF08B1012400E00024204638BD014655
:100950000020A14A106820F0F80040EAC1001060B1
:100960007047A04908607047024600209A4B5868BB
:1009700020F47C1042EA01031843974B58607047FB
:1009800098490866704701460020934A506820F055
:1009900003000843506070478F48406800F00C0027
:1009A0007047014600208C4A506820F0F000084350
:1009B0005060704701460020874A506820F4E0608C
:1009C00008435060704701460020834A506820F475
:1009D000605040EAC1005060704729B17E4A527AA7
:1009E00002437D4B5A7204E07B4A527A82437A4B2F
:1009F0005A7270477B49D831086070470146002021
:100A0000754A506820F44040084350607047002108
:100A1000714A20321170704A82F82010012802D0E9
:100A200004280AD104E001216B4A2032117005E04C
:100A30000521694A2032117000E000BF00BF7047F5
:100A40006949086070476449096A0143624A116252
:100A50007047654944390860704730B5002100226D
:100A6000002400235C4D6D6805F00C0121B10429C0
:100A700005D0082923D105E05C4D056022E05B4DDF
:100A800005601FE0544D6D6805F47012022505EBFA
:100A90009242514D6D6805F480341CB9544D554354
:100AA00005600BE04C4D6D6805F400351DB1504DEF
:100AB0005543056002E04D4D5543056002E04B4D46
:100AC000056000BF00BF444D6D6805F0F0010909E5
:100AD000484D6B5C0568DD4045603F4D6D6805F431
:100AE000E061090A434D6B5C4568DD4085603A4D25
:100AF0006D6805F46051C90A3E4D6B5C4568DD4088
:100B0000C560354D6D6805F44041890B3A4D6B5C0D
:100B1000C568B5FBF3F5056130BD29B12E4A5269B0
:100B200002432D4B5A6104E02B4A526982432A4BFF
:100B30005A61704729B1284A92690243264B9A614B
:100B400004E0254A92698243234B9A61704729B198
:100B5000214AD2690243204BDA6104E01E4AD2697D
:100B600082431D4BDA61704729B11B4AD2680243A8
:100B7000194BDA6004E0184AD2688243164BDA60F7
:100B8000704729B1144A12690243134B1A6104E0F9
:100B9000114A12698243104B1A6170471249403959
:100BA000086070470F49C86470470B49C8717047A7
:100BB0000948406A40F08070074948627047014622
:100BC0000020054A92680A400AB1012000E0002096
:100BD0007047014988727047001002400000FFF81A
:100BE000FFFFF6FE000042428004424200127A00FB
:100BF00000093D00142A0008242A00080020411E94
:100C0000ED4A11600A09EC498039C1F88420411E7F
:100C10004FF0E022C2F880120A09E8490A6000BFDA
:100C200004E00022E64941F82020401C0F28F8D3B8
:100C3000704700204FF02061E24A11600021121D30
:100C40001160E149121D11600021121D1160121D79
:100C5000116000BF05E00022DA49143141F820207C
:100C6000401C0328F7D30021D64A20321160491EC8
:100C7000121D1160121D1160121D11607047D249C2
:100C80000143D04A083211607047F0B500210022BC
:100C9000002300250F24C678002E35D0C94E083613
:100CA000366806F4E066C6F5E066310AC1F104056F
:100CB000CC40467806FA05F1867826403143090192
:100CC0000678B607F60EB140BD4E0778BF1056F84D
:100CD00027200678B607F70EFF2606FA07F39A4391
:100CE00019400A43B64E0778BF1046F82720067809
:100CF00006F01F070126BE4007787F11BF0007F1ED
:100D0000E027C7F800610BE0067806F01F07012610
:100D1000BE40A94F90F800C04FEA6C1C47F82C6009
:100D2000F0BD0021017041708170C170704710B535
:100D300001F013F910BD10B501F00DF910BD10B59B
:100D400001F010F910BD10B501F00EF910BD10B58D
:100D50000446200101F00DF910BD10B501F00CF9A9
:100D600010BD98480068C0F30930704710B50146BF
:100D70000020002201F01F04012303FA04F28E4B2D
:100D800080334C1153F824301340934201D1012099
:100D900000E0002010BD8D490860704700F01F0280
:100DA00001219140854A121F431142F823107047D8
:100DB00084480068C0F30900704710B50146002060
:100DC000002201F01F04012303FA04F27B4B7C3361
:100DD0004C1153F824301340934201D1012000E01C
:100DE000002010BD7748001F00687047784A0A400D
:100DF0000243744B1B1D1A6070477348001D7149F4
:100E00000831086070477048401C6E49083108601E
:100E1000704739B16B4A0C3212680243694B0C338C
:100E20001A6006E0674A0C3212688243654B0C3345
:100E30001A60704710B5002200F01F04012303FA66
:100E400004F239B15F4B20331B6813435D4C2034EF
:100E5000236006E05B4B20331B689343594C2034DE
:100E6000236010BDF0B503460C4615460020FF2256
:100E700000260021534F08373F6807F4E067C7F5A5
:100E8000E067390AC1F10400CA4004FA00F105EA3A
:100E900002073943090103F0C0008009C3F30122AE
:100EA000D700B9404FEAC20CFF2707FA0CF6454FAE
:100EB000143757F82070B743DFF808C10CF1140C51
:100EC0004CF82070674657F820700F434CF820709C
:100ED000F0BD10B50246002000230021910A01F068
:100EE0000F01012404FA01F1364C2034246804EA8D
:100EF00001038B4201D1012000E0002010BD002140
:100F000000F01F012F4A126801238B401A432D4B1A
:100F10001A60704710B5002100F01F01294A1268BD
:100F20004B1E01249C402243264B1A6010BD10B575
:100F30000246002000230021C2F38331012404FA79
:100F400001F1204C2034246804EA01038B4201D1D2
:100F5000012000E0002010BD30B501460020002235
:100F60000023C1F38142C1F301531AB9154C28344F
:100F7000206811E0012A0CD1124C24342468DD00D1
:100F800024FA05F0022B02D000F00F0004E0C0B2FA
:100F900002E00C4C2C34206830BD014600200022B9
:100FA000C1F380521AB9074B3033186802E0054B81
:100FB000343318687047000080E100E084E200E00C
:100FC00000E400E004ED00E00000FA0500EF00E0BE
:100FD00080FFFF1F10B50446D749601A8C422BD002
:100FE00006DCD648204498B1B0F5806F38D119E0BE
:100FF000B0F5806F2AD0B0F56C4F31D10121880354
:10100000FFF7B2FD00214FF48040FFF7ADFD28E06F
:1010100001214804FFF7B5FD00214FF40030FFF730
:10102000B0FD1EE001218804FFF7ABFD00214FF465
:101030008020FFF7A6FD14E00121C804FFF7A1FD01
:1010400000214FF40020FFF79CFD0AE00121080574
:10105000FFF797FD00214FF48010FFF792FD00E0AD
:1010600000BF00BF10BD2DE9F04786B005460E4613
:101070000024A24600BF00BF00272F462C8A4CF652
:10108000FF700440F08804432C82AC894EF6F310C4
:101090000440B08831890843718908430443AC8116
:1010A000AC8A4FF6FF400440B0890443AC8201A8EB
:1010B000FFF7D3FCA248874202D1DDF810A001E07F
:1010C000DDF80CA00AEBCA0000EB0A1031688900B9
:1010D000B0FBF1F86420B8FBF0F0040120096421B2
:1010E00001FB1089322000EB0910B0FBF1F000F099
:1010F0000F0004432C8106B0BDE8F0874FF4165171
:10110000016000218180C18001810C214181002189
:101110008181704710B502460020108A4FF2FF030C
:1011200018400B884C8823438C882343CC88234366
:101130001843108210BD0021018041808180C18050
:10114000704721B1828942F40052828104E0828991
:101150004DF6FF731A4082817047F0B503460024B4
:101160000026002500201846C1F3421401F01F0696
:10117000012707FA06F5012C01D10C3004E0022CFE
:1011800001D1103000E014301AB107682F43076016
:1011900002E00768AF430760F0BD1AB1838A0B43D2
:1011A000838202E0838A8B4383827047028A4FF6F0
:1011B000F0731A400282028A0A43028270478289CF
:1011C0004FF2FF731A40828182890A4382817047FD
:1011D00021B1828942F00202828104E082894FF6C5
:1011E000FD731A4082817047028A4FF6DF731A40FE
:1011F0000282028A0A430282704721B1028A42F4C3
:101200008042028204E0028A4BF6FF731A40028297
:101210007047C1F308028280704701468888C0F396
:1012200008007047818941F0010181817047028B7C
:10123000D2B20283028B42EA012202837047028B00
:1012400002F47F420283028B0A430283704721B17A
:10125000828A42F02002828204E0828A4FF6DF73A3
:101260001A408282704721B1828A42F01002828243
:1012700004E0828A4FF6EF731A408282704721B1F0
:10128000828A42F00802828204E0828A4FF6F77373
:101290001A4082827047828A4FF6FB731A4082821C
:1012A000828A0A438282704721B1828A42F0020216
:1012B000828204E0828A4FF6FD731A408282704770
:1012C0000246002013880B400BB1012000E00020F3
:1012D0007047CA430280704770B502460B4600242F
:1012E000002100250020C3F3421503F01F01012651
:1012F00006FA01F1012D02D19689314006E0022D56
:1013000002D1168A314001E0968A31401C12012632
:1013100006FA04F41688344011B10CB1012000E043
:10132000002070BD10B5002200230A120124944051
:10133000A3B2DC43048010BD004C004000BCFFBFE2
:101340000038014010B50446F749601A8C4245D078
:101350000CDCB4F1804F1DD0F448204418B3B0F534
:10136000806F29D0B0F5006F54D12EE0B0F5806FBA
:101370003DD0B0F58E3F03D0B0F5923F4AD13FE06B
:101380000121C802FFF7F0FB00214FF40060FFF7D6
:10139000EBFB40E001210846FFF7F3FB00210120B1
:1013A000FFF7EFFB37E001210220FFF7EAFB002106
:1013B0000220FFF7E6FB2EE001210420FFF7E1FB0E
:1013C00000210420FFF7DDFB25E001210820FFF7C5
:1013D000D8FB00210820FFF7D4FB1CE001211020DE
:1013E000FFF7CFFB00211020FFF7CBFB13E001211B
:1013F0002020FFF7C6FB00212020FFF7C2FB0AE0F8
:1014000001214803FFF7B0FB00214FF40050FFF724
:10141000ABFB00E000BF00BF10BD028802F08F02EE
:101420000280CA884B881A4303881A4302808A883C
:1014300082850A88028501228282BD4A904202D0BA
:10144000BC4A904201D10A7A0286704770B50024E6
:1014500000220023058C4FF6FE7635400584028C71
:101460008388048B4FF68F752C400D882C43751E96
:101470002A400D892A434D882A43CD888586AC4D64
:10148000A84202D0AB4DA84213D14FF6F7752A40BF
:101490004D892A434FF6FB752A408D882A4347F62B
:1014A000FF652B4047F6FF552B408D892B43CD8997
:1014B0002B4383800483028470BD70B50024002216
:1014C0000023058C4FF6EF7635400584028C838827
:1014D000048B48F6FF752C400D884FF6FF7606EA20
:1014E00005252C434FF6DF752A400D8906EA0515C0
:1014F0002A434D8806EA05152A43CD8805878C4D79
:10150000A84202D08B4DA8421DD14FF67F752A40CC
:101510004D894FF6FF7606EA05152A434FF6BF754B
:101520002A408D8806EA05152A4347F6FF352B40E9
:1015300047F2FF752B408D8906EA85052B43CD893F
:1015400006EA85052B4383800483028470BD70B551
:10155000002400220023058C4FF6FF6635400584E9
:10156000028C8388848B4FF68F752C400D882C431A
:101570004FF6FF552A400D894FF6FF7606EA0525FE
:101580002A434D8806EA05252A43CD888587684D7C
:10159000A84202D0674DA8421DD14FF2FF752A40E4
:1015A0004D894FF6FF7606EA05252A434FF6FF35AB
:1015B0002A408D8806EA05252A4346F6FF752B400A
:1015C00045F6FF752B408D8906EA05152B43CD891D
:1015D00006EA05152B4383808483028470BD70B5B1
:1015E000002400220023058C4EF6FF76354005844A
:1015F000028C8388848B48F6FF752C400D884FF64B
:10160000FF7606EA05252C434DF6FF752A400D8925
:1016100006EA05352A434D8806EA05352A43CD8872
:10162000A0F84050424DA84202D0424DA84207D1F6
:10163000C3F30D038D894FF6FF7606EA85152B431C
:1016400083808483028470BD828B4FF2FF331A4003
:101650008283828B4FF6FF7303EA01231A4382834E
:101660007047F0B50C461546002100220026078C75
:101670004EF6FF7C07EA0C070784818B028C4FF63D
:10168000FF7707EA043640F6FF4739404FF6FF7709
:1016900007EA05274FF6FF7C0CEA033C47EA0C07F4
:1016A00039434DF6FF773A4046F480573A438183F9
:1016B0000284F0BD828B4FF6F3731A408283828BD3
:1016C0000A4382837047F0B50C461546002100227C
:1016D0000026078C4FF6FF6C07EA0C070784818B06
:1016E000028C4FF6FF7707EA04264FF60C77394055
:1016F0004FF6FF7707EA03172F4339434FF6FF579B
:101700003A4046F480773A4381830284F0BD028BED
:101710004FF2FF331A400283028B4FF6FF7303EA46
:1017200001231A43028370470010004000FCFFBFF2
:10173000002C014000340140F0B50C461546002154
:1017400000220026078C4FF6EF7C07EA0C0707847F
:10175000018B028C4FF6FF7707EA041640F6FF472D
:1017600039404FF6FF7707EA033739434FF6FF77E3
:1017700007EA052739434FF6DF773A4046F010076E
:101780003A4301830284F0BD028B4FF6F3731A4093
:101790000283028B0A4302837047F0B50C4615465C
:1017A00000210022068C4FF6FE773E400684018B16
:1017B000028C4FF60C7631407E1C06EA03162E434F
:1017C00031437E1E324044F00106324301830284DD
:1017D000F0BD70B505460C46208850B92389A28813
:1017E00061882846FFF7D9FFE1882846FFF7CCFF3C
:1017F00025E0208804280AD12389A2886188284608
:10180000FFF79AFFE1882846FFF781FF17E020885D
:1018100008280AD12389A28861882846FFF753FF48
:10182000E1882846FFF746FF09E02389A2886188FE
:101830002846FFF716FFE1882846FFF705FF70BD31
:101840002DE9F04105460C4600260127608808B9BD
:10185000022600E00026A088012801D1022700E02E
:1018600001272088A0B92389A28861882846FFF72C
:1018700094FFE1882846FFF787FF23893A463146DF
:101880002846FFF759FFE1882846FFF740FF13E09D
:101890002389A28861882846FFF74EFFE188284601
:1018A000FFF735FF23893A4631462846FFF775FF93
:1018B000E1882846FFF768FFBDE8F0810A884B8879
:1018C0001A438B881A43CB881A430B891A434B89D6
:1018D0001A438B891A43A0F8442070474FF6FF71D2
:1018E000818000210180C180418001727047002108
:1018F000018041808180C180018141818181C181DC
:101900007047002101804180012181800021C18038
:10191000018170470021018041808180C180018167
:1019200041818181704721B1028842F00102028029
:1019300004E0028840F2FE331A400280704731B161
:10194000B0F8442042F40042A0F8442005E0B0F88A
:101950004420C2F30E02A0F8442070471AB18389D4
:101960000B43838102E083898B43838170478182AB
:10197000704741EA0203A0F8483070471AB18389E2
:101980000B43838102E083898B4383817047018904
:101990004FF6F8721140018170470A460021018913
:1019A0004FF68F73194011430181704730B50446DB
:1019B0000D4629462046FFF7F0FF208940F007003A
:1019C000208130BD2DE9F04104460D4616461F46E4
:1019D000602D06D13B46012231462046FFF7ACFE82
:1019E00005E03B46012231462046FFF7D6FE294658
:1019F0002046FFF7D2FF208940F007002081BDE894
:101A0000F08170B50C4600210189C9B244EA020593
:101A10004FF6FF7606EA032635432943018170BD60
:101A20002DE9F04105460E461746984600244346E8
:101A30003A4631462846FFF7E4FF2C894FF6F87006
:101A4000044044F007044FF68F70044044F07004E3
:101A50002C81BDE8F081F0B504460D4616461F46C0
:101A60003B46324629462046FFF7CBFF208940F40B
:101A700080402081F0BD0185828270470A460021A6
:101A8000018840F28F331940114301807047F0B54F
:101A90000C4615461E460021002200230189028BB8
:101AA000038C4FF6F877394021434FF6FC473A4014
:101AB00040F201173A434FF6DD773B404FF6FF7790
:101AC00007EA06172F433B43018102830384F0BDDD
:101AD0000A460021018B4FF68F7319401143018391
:101AE00070470A460021018B48F6FF7319404FF6F4
:101AF000FF7303EA02231943018370470A4600215A
:101B0000818B4FF68F7319401143818370470A46CA
:101B10000021818B48F6FF7319404FF6FF7303EAEB
:101B2000022319438183704721B1028842F0800269
:101B3000028004E0028840F27F331A40028070473E
:101B400021B1828842F00402828004E082884FF64C
:101B5000FB731A408280704721B1828842F00802EC
:101B6000828004E082884FF6F7731A4082807047C3
:101B700021B1828842F00102828004E082884FF61F
:101B8000FE731A40828070470A460021018B4FF68F
:101B9000F77319401143018370470A460021018BF6
:101BA0004FF2FF7319404FF6FF7303EA0223194304
:101BB000018370470A460021818B4FF6F773194065
:101BC0001143818370470A460021818B4FF2FF73D6
:101BD00019404FF6FF7303EA0223194381837047CC
:101BE0000A460021018B4FF6FB7319401143018314
:101BF00070470A460021018B4FF6FF3319404FF61C
:101C0000FF7303EA02231943018370470A46002148
:101C1000818B4FF6FB7319401143818370470A464D
:101C20000021818B4FF6FF3319404FF6FF7303EA13
:101C300002231943818370470A460021018B4FF626
:101C40007F7319401143018370470A460021018BBD
:101C5000C1F30E014FF6FF7303EA02231943018318
:101C600070470A460021818B4FF67F73194011435C
:101C7000818370470A460021818BC1F30E014FF624
:101C8000FF7303EA02231943818370470A46002148
:101C9000018C4FF6FD7319401143018470470A46C9
:101CA0000021018C4FF6F7731940114301847047EE
:101CB0000A460021018C4FF6DF7319404FF6FF737F
:101CC00003EA02131943018470470A460021018C7C
:101CD0004FF67F7319404FF6FF7303EA021319435F
:101CE000018470470A460021018C4FF6FF531940CA
:101CF0004FF6FF7303EA02231943018470470A4633
:101D00000021018C4FF2FF7319404FF6FF7303EA75
:101D100002231943018470470A460021018C4DF6C5
:101D2000FF7319404FF6FF7303EA0233194301842E
:101D3000704710B5038C01248C40A3430384038CAB
:101D400002FA01F4A4B22343038410BD10B5038C3E
:101D500004248C40A3430384038C02FA01F4A4B24C
:101D60002343038410BD30B5038C01248C40A3436E
:101D7000038409B1082918D100F1180303EB6103AA
:101D80001B684FF68F74234000F1180404EB6104C4
:101D9000236000F1180303EB61031B68134300F198
:101DA000180404EB610423601FE00B1FC3F34E040F
:101DB00000F118031B5948F6FF7423400C1FC4F3AD
:101DC0004E0500F1180463510B1FC3F34E0400F1DC
:101DD00018031B594FF6FF7404EA022423430C1F17
:101DE000C4F34E0500F11804635130BD21B10288DF
:101DF00042F00202028004E0028840F2FD331A4001
:101E00000280704721B1028842F00402028004E09F
:101E1000028840F2FB331A400280704721B1828869
:101E200042F08002828004E082884FF67F731A407D
:101E300082807047028840F2F7331A40028002889D
:101E40000A430280704782884FF68F731A4082805F
:101E500082880A438280704702894FF6F8731A40DD
:101E6000028102890A430281704702894FF67F731B
:101E70001A40028102890A430281704781847047B7
:101E800081857047818670470187704781877047D9
:101E9000A0F8401070470288D2B2028002880A433C
:101EA000028070470146888E70470146088F704750
:101EB0000146888F70470146B1F8400070470146DF
:101EC000888C70470146088D704702460020138AAF
:101ED0000B400BB1012000E000207047CA43028292
:101EE000704730B50246002000230024158A05EA19
:101EF0000103958905EA010413B10CB1012000E04A
:101F0000002030BDCA4302827047000030BF7047D6
:101F100020BF704740BF7047BFF36F8F7047BFF35C
:101F20004F8F7047BFF35F8F704701DF7047EFF34C
:101F30001480704780F31488BFF36F8F7047EFF3FE
:101F40000980704780F309887047EFF30880704775
:101F500080F30888704762B6704772B67047EFF337
:101F60001080704771B6704761B67047EFF3138009
:101F7000704780F311887047EFF31280704740BAC2
:101F8000704700BA704700000348004703480449FF
:101F9000044A054B7047000031010008800500200D
:101FA000800D00208009002080090020704700BFBC
:101FB000FEE700BFFEE700BFFEE700BFFEE7704799
:101FC0007047704770477047704770477047704759
:101FD0007047704770477047704770477047704749
:101FE0007047704770477047704770477047704739
:101FF0007047704770477047704770477047704729
:102000007047704770477047704770477047704718
:102010007047704770477047704770477047704708
:1020200070477047704770477047704770477047F8
:10203000704770477047704700BF0100A0F1010072
:10204000FBD1704710B5FEF709FC4FF48030FEF766
:1020500024FCFEF761FC0446012C24D10020FEF78D
:10206000A0FC0020FEF7AFFCA002FEF7A3FC0220BC
:10207000FEF7D6F91020FEF7E9F94FF4E01120043D
:10208000FEF772FC0120FEF77BFC00BF3920FEF753
:1020900027FC0028FAD00220FEF775FC00BFFEF7EF
:1020A0007BFC0828FBD1012144F20400FEF742FD2D
:1020B00001212820FEF73EFD10BD10B56FF0010094
:1020C000FEF782FB6FF00400FEF766FB0020FEF7D0
:1020D0007BFBF848FEF774FB10BD10B50120FEF73E
:1020E00073FB00BF1020FEF7A1FB0028FAD06FF0B1
:1020F0000100FEF769FB0020FEF766FB10BD08B586
:1021000001210420FEF716FD01212020FEF712FD1B
:1021100001210820FEF70EFD4FF6FF70ADF800001C
:1021200010208DF8030003208DF802006946E24874
:10213000FEF702FA0420ADF8000003208DF802003B
:1021400010208DF803006946DC48FEF7F5F94FF4DE
:102150000070ADF8000018208DF8030003208DF802
:1021600002006946D648FEF7E7F94FF48060ADF803
:10217000000004208DF803006946D148FEF7DCF921
:1021800008BD1FB54FF4165000900020ADF80400B4
:10219000ADF80600ADF80800ADF80C000C20ADF865
:1021A0000A006946C748FEF75EFF012240F2277128
:1021B000C448FEF7D2FF012240F22551C148FEF784
:1021C000CCFF0121BF48FEF7BCFF1FBD30B587B073
:1021D000BD4C01210846FEF7BAFCBC48B4FBF0F048
:1021E000401E85B21D20ADF81400ADF8105000203F
:1021F000ADF81600ADF8120004A96005FFF70DF95F
:1022000000216005FFF790FC0020ADF80000ADF85C
:1022100002000820ADF806006946C006FFF716F96F
:1022200000216005FFF7B0FC6020ADF80000002041
:10223000ADF802001120ADF8060069468007FFF7EF
:102240003CF900216005FFF7A8FC07B030BD00B5E0
:102250008BB001210846FEF760FC9D48FDF7BEFFEC
:1022600095480C3000909B48008801901020029007
:1022700000200390049005904FF4007006904000F9
:102280000790002008904FF40050099000200A9019
:1022900069468F48FEF73BF88D483C30FDF79EFFBE
:1022A00085480C3000908C4801901020029000204E
:1022B00003900490802005908000069040000790D5
:1022C000002008904FF40050099000200A906946C1
:1022D0007F483C30FEF71BF87D486430FDF77EFFF9
:1022E00075480C3000907D480088019010200290C5
:1022F00000200390049005904FF400700690400079
:102300000790002008904FF40050099000200A9098
:1023100069466F486430FDF7FAFF012202216C48DC
:102320006430FEF72AF80BB000BD08B54FF4A0608A
:10233000FEF7A5FC1C208DF8000000208DF80100A0
:1023400002208DF8020001208DF803006846FEF798
:102350009CFC11208DF8000000208DF80100012068
:102360008DF802008DF803006846FEF78EFC2520EC
:102370008DF8000001208DF8010000208DF802008A
:1023800001208DF803006846FEF77FFC08BD10B5FC
:102390000446002052490870F020FEF711F84FF46F
:1023A0007020FEF70DF84FF05060FEF709F8A1B26B
:1023B0004748FDF7EBFFA1B245483C30FDF7E6FF8B
:1023C000A1B243486430FDF7E1FF00204FF08041A7
:1023D000088201213E48FDF7C5FF01213C483C3001
:1023E000FDF7C0FF01213A486430FDF7BBFF012231
:1023F00051024805FFF7C2FA012291020805FFF7D2
:10240000BDFA012211028805FFF7B8FA1D218807DD
:10241000FFF734FD01218807FFF785FA10BD10B5DD
:102420004FF00070FDF7EAFF012211469007FFF719
:1024300095FA00212648FDF795FF002124483C30FD
:10244000FDF790FF002122486430FDF78BFF00224A
:102450004FF400714805FFF791FA00224FF48061B4
:102460000805FFF78BFA00224FF480718805FFF70B
:1024700085FA10BD10B501218807FFF743FD194803
:102480000078132805DA17480078401C15490870B1
:102490000FE000201349087000214FF08040FFF743
:1024A00042FA002201218807FFF758FA01200C495F
:1024B000087010BD40548900000C01400014014018
:1024C000000801400038014000A24A0400366E01B5
:1024D0001C000240000000202C0000200200002010
:1024E0000400002005000020F0B50446059D0020F2
:1024F00088E001EB410600EBC606A04F37F81660F6
:102500000127A740BE4301EB410700EBC707DFF8F7
:102510006CC22CF8176001EB4106082707EBC606D2
:102520000644674637F816600127A740BE4301EB13
:1025300041074FF0080C0CEBC7070744DFF83CC21B
:102540002CF8176001EB4106102707EBC60606447E
:10255000674637F816700126A640B74301EB4106DF
:102560004FF0100C0CEBC6060644DFF810C22CF836
:10257000167001EB410600EBC606674637F8166099
:1025800003FA00F7C7F3C017A7403E4301EB41072A
:1025900000EBC7072CF8176001EB4106082707EB93
:1025A000C6060644674637F8166002FA00F7C7F316
:1025B000C017A7403E4301EB41074FF0080C0CEB5E
:1025C000C7070744DFF8B4C12CF8176001EB4106D8
:1025D000102707EBC6060644674637F8166005FA6B
:1025E00000F7C7F3C017A7403E4301EB41074FF088
:1025F000100C0CEBC7070744DFF880C12CF81760FC
:10260000461CF0B20828FFF674AFF0BD002000BFF2
:1026100004E00021594A22F81010401CB0F51C7F3C
:10262000F7D370472DE9F84306460D4617469846FE
:10263000DDF82090002409E043463A462146304622
:10264000CDF80090FFF750FF601CC4B2AC42F3DB42
:10265000BDE8F8832DE9F84305460E46174698462F
:10266000DDF82090002409E043463A4631462046F2
:10267000CDF80090FFF738FF601CC4B2AC42F3DB2A
:10268000BDE8F8837CB500240020019042F210756B
:1026900040F225513A48FEF71FFE00285AD038482C
:1026A000FEF7BBFD3749384A127888540846364948
:1026B0000978405C302805DB324833490978405CB2
:1026C000392842DD002407E02E48005D01A90855A5
:1026D00000202C490855641C2B4800788442F3D311
:1026E00001A800F055F80546E9B22548FEF791FD2E
:1026F00000BF40212248FEF7E3FD0028F9D07721F2
:102700001F48FEF786FD00BF40211D48FEF7D8FD9B
:102710000028F9D000BF1D4800780028FBD0FFF743
:1027200075FF0020A9B20346052200900220FFF7A2
:10273000DBFE4FF41C70FFF72AFE00201149124AFD
:1027400012788854104908707CBD0F480078401CEE
:102750000D49087000BFF7E700BF00BFFFF772FC2C
:10276000FFF7ABFCFFF7CBFCFFF771FDFFF72EFD8A
:10277000FFF707FDFFF7D9FD00BFFEE72C000020A3
:10278000003801400C0500202A0000200400002031
:1027900070B5064600F00CF80468054630460A227B
:1027A000002100F009F82C6070BD70477047704739
:1027B000004870471C0500202DE9F04791460F4660
:1027C00080460446002614F8015B2DB100F030F875
:1027D0000068405DC007F6D12B2D02D02D2D18D0FA
:1027E000641E4A463946204600F02AF827B1396867
:1027F000A14201D1C7F800804FF0020471050BD54A
:102800004042002803DDFFF7D3FF0460A007BDE8C6
:10281000F08746F48066E4E70028F8DAFFF7C8FF9F
:1028200004606FF00040F2E7004870471C0500208C
:1028300010B500F079F8001D10BD00BFAD0100001B
:102840002DE9F05F824615468B4600270AF1010408
:10285000B9460078302801D09DB113E014F8010B7F
:102860000127782803D0582801D045B10AE00DB1DE
:10287000102D07D1002714F8010B102502E00825C0
:1028800000E00A250026B0460EE005FB080005FB27
:1028900006F101271FFA80F801EB1046B6F5803FDC
:1028A00000D3B94614F8010B294600F041F800287E
:1028B000EBDABBF1000F05D00FB1641E00E0544607
:1028C000CBF80040B9F1000F06D0FFF771FF0221ED
:1028D0000160C81EBDE8F09F48EA0640FAE7754669
:1028E000FFF7A2FFAE4605006946534620F00700F9
:1028F000854618B020B5FFF749FBBDE820404FF0F2
:1029000000064FF000074FF000084FF0000B21F0D9
:102910000701AC46ACE8C009ACE8C009ACE8C009A6
:10292000ACE8C0098D467047004870473C05002060
:102930003A2800D2303820F02002412A01D3A2F1F7
:102940003700884201D34FF0FF3070470446AFF3A1
:1029500000802046FDF73CFC4FF0013C50F8042B72
:1029600051F8043B9A4221D1A2EB0C03934313EAA2
:10297000CC1317D150F8042B51F8043B9A4215D1CF
:10298000A2EB0C03934313EACC130BD150F8042BA6
:1029900051F8043B9A4209D1A2EB0C03934313EA8A
:1029A000CC13DBD04FF00000704700BFD01A01BA43
:1029B000B1FA81F101F0180122FA01F0CB40C1F126
:1029C0002001DBB2C0B2C01A2CFA01F3D11A914334
:1029D00011EAC311E6D1704701491820ABBEFEE7EA
:1029E000260002007047000010B500290AD00878C0
:1029F000002807D005487844FFF7AEFF002801D033
:102A0000002010BD0248784410BD000052000000B4
:102A10004A00000000000000010203040102030458
:102A20000607080902040608582B000800000020C9
:102A30002C0000006C010008842B00082C000020F2
:102A4000540D000088010008100100004300000040
:102A5000F8FFFFFF004040404040404040404141BF
:102A60004141414040404040404040404040404063
:102A700040404040400502020202020202020202FD
:102A800002020202022020202020202020202002FA
:102A9000020202020202909090909090101010108A
:102AA0001010101010101010101010101010101026
:102AB00002020202020288888888888808080808BA
:102AC0000808080808080808080808080808080886
:102AD00002020202400000000000000000000000AE
:102AE00000000000000000000000000000000000E6
:102AF00000000000000000000000000000000000D6
:102B000000000000000000000000000000000000C5
:102B100000000000000000000000000000000000B5
:102B200000000000000000000000000000000000A5
:102B30000000000000000000000000000000000095
:102B40000000000000000000000000000000000085
:102B50000000000000000000FFFF00000100FF0077
:102B600000FF8000FFFF0080FF0000FF0000FF80EB
:102B700000FFFF0080FF0000FF8000FFFF00FFFF5D
:042B800000800000D1
:0400000508000131BD
:00000001FF
